:1000000086C00000A1C000009FC000009DC000008D
:100010009BC0000099C0000097C0000095C0000080
:1000200093C0000091C000008FC000008DC0000090
:100030008BC0000017C1000087C0000085C0000011
:1000400083C0000081C000007FC000007DC00000B0
:100050007BC0000079C0000077C0000075C00000C0
:1000600073C0000071C000006FC000006DC00000D0
:100070006BC0000069C0000067C0000065C00000E0
:1000800063C0000061C000005FC00000EC01150308
:1000900015031503150315031503150315031503A0
:1000A0001503150315031503150315031503150390
:1000B0001503150315031503150315031503150380
:1000C0001503150315031503150315031503150370
:1000D0001503150315031503150315031503150360
:1000E0001503150315031503150315031503F20175
:1000F000F8011B023E0261028402A702CA02EE025C
:100100008B039703A403AA03B903C703D5031124E0
:100110001FBECFEFD0E4DEBFCDBF1DE0A0E0B1E059
:10012000EAEDFFE000E00BBF02C007900D92A235A0
:10013000B107D9F72DE0A2E5BDE001C01D92A339BA
:10014000B207E1F726D547C75BCF181619065CF052
:100150000895000021503109E1F74F5F5F4F841788
:10016000950719F4089540E050E027E033E0F1CF1F
:1001700010988BB9119A0000119882E090E0E5CFB9
:10018000089581E0F5CF0895813118F48158F0CFBA
:1001900008958155EDCF089584E690E0D6DF88E399
:1001A000E7DF86E0E5DF8FE0E3DF81E0E1DF8AE0A3
:1001B00090E0CBCF0895109A8BB9119A0000119856
:1001C00081E090E0C2CF08950F931F93CF93DF9308
:1001D000182FEB01D6DF8881882351F001E0010F51
:1001E000812FD2DF8991E7DF102F88818111F6CF2F
:1001F000DF91CF911F910F91089560936E017093DD
:100200006F0180937001909371016093890D7093D9
:100210008A0D80938B0D90938C0D08958BE08093C5
:1002200081008DE790E0909389008093880082E0C0
:1002300080936F00109285001092840080916E016F
:1002400090916F01A0917001B09171018093890D1F
:1002500090938A0DA0938B0DB0938C0D8FB780680F
:100260008FBF08951F920F920FB60F9211248F9394
:100270009F93AF93BF938091890D90918A0DA09128
:100280008B0DB0918C0D0197A109B1098093890D57
:1002900090938A0DA0938B0DB0938C0D892B8A2B94
:1002A0008B2B99F481E080938D0D80916E0190915C
:1002B0006F01A0917001B09171018093890D9093AD
:1002C0008A0DA0938B0DB0938C0DBF91AF919F9130
:1002D0008F910F900FBE0F901F9018958FEE88B9D9
:1002E0000000309B2EC0319B2EC0329B2EC0339B12
:1002F0002EC08FED88B90000309B2BC0319B2BC0E6
:10030000329B2BC0339B2BC08FEB88B90000309BF6
:1003100028C0319B28C0329B28C0339B28C08FE760
:1003200088B90000309B25C0319B25C0329B25C079
:10033000339B25C08091880D8F5F8093880D80E06E
:10034000089581E3089584E3089587E308958AE298
:10035000089582E3089585E3089588E3089580E38E
:10036000089583E3089586E3089589E3089583E279
:10037000089581E4089582E4089583E4089584E46F
:100380000895CF93DF93EC0181309105C9F082305D
:10039000910531F0892B21F081E08093900D02C00E
:1003A000C1E0D0E0C130D10539F0C230D10541F013
:1003B000209709F454C135C191DF80938E0D4FC150
:1003C000E0918E0D8E2F90E08A33910508F02DC1BB
:1003D000FC01EA5BFF4FF6C580E280936D01C2E04D
:1003E000D0E03DC180E280936D01C2E0D0E037C132
:1003F0009091880D8BEA989F812D11248695282F46
:10040000220F820F981B913031F481E480936D01AB
:10041000C2E0D0E024C1923031F482E480936D01D7
:10042000C2E0D0E01CC1911103C183E480936D014F
:10043000C2E0D0E014C19091880D8BEA989F812D85
:1004400011248695282F220F820F981B913031F4AA
:1004500084E480936D01C2E0D0E001C1923031F4B8
:1004600085E480936D01C2E0D0E0F9C09111E3C052
:1004700086E480936D01C2E0D0E0F1C09091880DD8
:100480008BEA989F812D11248695282F220F820FA9
:10049000981B913031F487E480936D01C2E0D0E085
:1004A000DEC0923031F488E480936D01C2E0D0E088
:1004B000D6C09111C3C089E480936D01C2E0D0E041
:1004C000CEC09091880D8BEA989F812D112486953E
:1004D000282F220F820F981B913031F48AE48093E9
:1004E0006D01C2E0D0E0BBC0923031F48BE4809368
:1004F0006D01C2E0D0E0B3C09111A3C08CE4809341
:100500006D01C2E0D0E0ABC09091880D8BEA989F5E
:10051000812D11248695282F220F820F981B913050
:1005200031F48DE480936D01C2E0D0E098C0923048
:1005300031F48EE480936D01C2E0D0E090C091115F
:1005400083C08FE480936D01C2E0D0E088C08091C9
:10055000880D8370813031F480E580936D01C2E0B5
:10056000D0E07DC0823031F481E580936D01C2E03E
:10057000D0E075C0833031F482E580936D01C2E034
:10058000D0E06DC0811163C083E580936D01C2E04E
:10059000D0E065C09091880D8BEA989F812D112441
:1005A0008695282F220F820F981B913031F484E515
:1005B00080936D01C2E0D0E052C0923031F485E505
:1005C00080936D01C2E0D0E04AC0933009F042C090
:1005D00086E580936D01C2E0D0E041C08091880D36
:1005E0008370813031F487E580936D01C2E0D0E003
:1005F00036C0823031F488E580936D01C2E0D0E0EE
:100600002EC0833031F489E580936D01C2E0D0E0E3
:1006100026C0811122C08AE580936D01C2E0D0E03E
:100620001EC081E08093900D1AC0C2E0D0E017C0D8
:10063000C2E0D0E014C0C2E0D0E011C0C2E0D0E01F
:100640000EC0C2E0D0E00BC0C2E0D0E008C0C2E003
:10065000D0E005C0C2E0D0E002C0C2E0D0E0CE01F0
:10066000DF91CF910895CF93C82F299821D38C2F54
:100670002BD3299A1FD3CF91089528982FEF80E785
:1006800092E0215080409040E1F700C00000289A9D
:100690000895F3DF81E2E7DF80ECE5DF87E0E3DF69
:1006A00083E1E1DF80E2DFDF8CE0DDCF0895CF93EF
:1006B000C62FD9DF8C2FD7DFCF910895CF93DF934B
:1006C000F7D2299AC8EFD1E080E0FED22197E1F776
:1006D0002998F0D2DF91CF9108950F931F93CF9374
:1006E000DF938C01E5D2299AE80108501E4F8991C9
:1006F000EBD2C017D107D9F72998DCD2DF91CF917F
:100700001F910F9108958730910508F05CC0FC019E
:10071000E058FF4F57C4D0D2BCDFD0DF60E880E4A0
:10072000C6DF81E891E0D9DF81E090E00895209173
:10073000870D213009F050C0C1DF60E880E4B7DFE9
:1007400089E59BE0CADF42C08091870D823009F0C5
:100750003DC040C02091870D233009F03DC0AEDF81
:1007600060E880E4A4DF81E699E0B7DF84E090E010
:1007700008952091870D243079F5A0DF60E880E4AA
:1007800096DF89E697E0A9DF85E090E00895209163
:10079000870D253009F592DF60E880E488DF81E786
:1007A00095E09BDF86E090E008952091870D26304C
:1007B00099F484DF60E880E47ADF89E793E08DDFF5
:1007C00087E090E008958230910531F477DF82E090
:1007D00090E0089583E090E00895CF92DF92EF9249
:1007E000FF926B017C019B01AC016091520D7091F5
:1007F000530D8091540D9091550D6BD2882309F4BF
:1008000040C020E030E0A901C701B60162D28111E9
:1008100004C085B5887085BD03C085B5836085BD7E
:1008200028E539E344E75FE3C701B60152D28823E4
:100830001CF48FEF87BD1CC020E034E244EF56E487
:10084000C701B60158D3181614F417BC11C020E024
:1008500030E040E053E4C701B60151D39B01AC0145
:1008600060E074E284EF9AE438D29FD2615067BDB1
:1008700016BCC092520DD092530DE092540DF092DE
:10088000550DFF90EF90DF90CF900895CF93DF93B9
:10089000EC018130910579F08230910599F0892B36
:1008A000B1F491E080E02091860D211101C090E02B
:1008B000C92FD82F0CC08091850D8B3080F01092FD
:1008C000850D0DC08091860D811116C008C0C13004
:1008D000D10561F0C230D10579F0209799F460E03C
:1008E00070E0CB017ADFC0E0D0E00CC060E070EDDA
:1008F00082E094E472DF06C060E070E0CB016DDF5F
:10090000C2E0D0E0CE01DF91CF91089581E484BDB3
:100910008BE085BD60E070E0CB015FCF08950F9361
:100920001F93CF93DF93883070F48B01880F880F6B
:10093000880F805C1DDCE801085F1F4F89913BDC5C
:10094000C017D107D9F7DF91CF911F910F9108956B
:100950005091830D4091910D60E080E071E00EC0F8
:10096000282F30E0F901E45AFE4F9081941305C01E
:10097000F901E050FF4F4083672F8F5F851780F3A9
:10098000662371F36093860D0895CF93DF938230D1
:10099000910571F01CF4009749F03FC08330910538
:1009A000B9F08430910509F436C037C0EADB41C0A4
:1009B0008091820D843308F43CC0E3DB62E771E090
:1009C00081E102DC81E0E0DB81E08093840D7BC08B
:1009D00080B1809586FF77C0D4DB82E090E0B5DB04
:1009E0008091830D882389F0C0E0DFE5EC2FF0E0F3
:1009F000E050FF4FD08381E18C0FC6DB8D2FDBDB16
:100A0000CF5F8091830DC81788F381E0BDDB81E063
:100A10008093840D82C080B180C08330910509F439
:100A200052C08430910509F478C08230910509F0F4
:100A3000ADC01092840D80E08F5FA6DBE091840D45
:100A4000F0E0E75EFE4F8081B6DB8091840D8F5F22
:100A50008093840D803180F39091190190938F0DD4
:100A6000E9E1F1E02CE531E0818181932E173F0728
:100A7000D9F790935C0161E171E080E050DF81E1A2
:100A800083DB80E098DB84E17FDB80E094DB87E13F
:100A90007BDB80E090DB8AE177DB80E08CDB8DE143
:100AA00073DB80E088DB80E26FDB80E084DB83E265
:100AB0006BDB80E080DB8091820D8F5F8093820D05
:100AC00082E090E063C080B1809585FF18C080917E
:100AD000830D8031A0F49091840D9F5F9093840DDD
:100AE000E82FF0E0E45AFE4F9091920D90838F5FD3
:100AF0008093830D80E280936D011092880D809128
:100B0000840D42DB80916D01803209F43AC08093FC
:100B1000920D51DB83E090E039C080B1809585FF74
:100B200024C08091920D8093910D80E280936D019D
:100B30001092880D81E028DB80E23DDB81E024DB40
:100B400085B106DF8091830D882379F0C0E081E1D3
:100B50008C0F1ADBEC2FF0E0E050FF4F80812BDB95
:100B6000CF5F8091830DC81790F381E00DDB8091FA
:100B70006D01803249F08093920D1DDB84E090E09E
:100B800005C083E090E002C084E090E0DF91CF9167
:100B900008958FEF8AB91BB881B982B984B915B8A5
:100BA00080EF87B98FE088B9E6E5FDE0108284EF39
:100BB00091E0A0E0B0E081839283A383B483858336
:100BC0009683A783B08725EC34E03287218713868C
:100BD0004CE251E060E070E0448755876687778794
:100BE000408B518B628B738B21EC31E0358B248BE6
:100BF000168A44E650E060E070E0478B508F618FCA
:100C0000728F438F548F658F768F26E434E030A344
:100C1000278F11A282A393A3A4A3B5A386A397A30E
:100C2000A0A7B1A783E893E093A782A764E670E04A
:100C300080E090E0E2DAF2DAAFDA68DE0F2EF2E876
:100C4000EF2EFDE0FF2EF02DC6E5DDE08E014D819B
:100C50005E816F81788589819A81AB81BC814817DB
:100C600059076A077B0761F48881E985FA85082EB0
:100C7000000C990B099588831D821E821F8218869D
:100C8000F80185819681A781B0858C599F4FAF4F20
:100C9000BF4F85839683A783B0872B96CE15DF053C
:100CA000A9F680918D0D8823E1F310928D0DCCCFA4
:100CB0002C9808952C9A089583EB84B9289A269845
:100CC0002C9A81E58CBD08958EBD0DB407FEFDCF35
:100CD00008959CD008F481E008950CD0D2C0CAD009
:100CE00040F0C1D030F021F45F3F19F0B3C0511192
:100CF000FCC0B6C0D7D098F39923C9F35523B1F3FC
:100D0000951B550BBB27AA2762177307840738F07A
:100D10009F5F5F4F220F331F441FAA1FA9F333D0D9
:100D20000E2E3AF0E0E830D091505040E695001C8D
:100D3000CAF729D0FE2F27D0660F771F881FBB1F49
:100D4000261737074807AB07B0E809F0BB0B802D23
:100D5000BF01FF2793585F4F2AF09E3F510568F06F
:100D600079C0C3C05F3FECF3983EDCF3869577957E
:100D70006795B795F7959F5FC9F7880F911D969571
:100D8000879597F90895E1E0660F771F881FBB1FCD
:100D9000621773078407BA0720F0621B730B840B7A
:100DA000BA0BEE1F88F7E095089504D06894B1114E
:100DB0009CC008957FD088F09F5790F0B92F992755
:100DC000B751A0F0D1F0660F771F881F991F1AF056
:100DD000BA95C9F712C0B13081F086D0B1E008955C
:100DE00083C0672F782F8827B85F39F0B93FCCF3DD
:100DF000869577956795B395D9F73EF4909580954C
:100E0000709561957F4F8F4F9F4F0895990F000800
:100E1000550FAA0BE0E8FEEF16161706E807F907CC
:100E2000C0F012161306E407F50798F0621B730B67
:100E3000840B950B39F40A2661F0232B242B252BE8
:100E400021F408950A2609F4A140A6958FEF811D8B
:100E5000811D089597F99F6780E870E060E008952C
:100E60009FEF80EC089500240A94161617061806C2
:100E70000906089500240A9412161306140605069E
:100E80000895092E0394000C11F4882352F0BB0F2F
:100E900040F4BF2B11F460FF04C06F5F7F4F8F4F92
:100EA0009F4F089557FD9058440F551F59F05F3FCD
:100EB00071F04795880F97FB991F61F09F3F79F07C
:100EC00087950895121613061406551FF2CF4695FE
:100ED000F1DF08C0161617061806991FF1CF869580
:100EE0007105610508940895E894BB276627772764
:100EF000CB0197F908958ADF08F48FEF08950BD09E
:100F0000C0CFB1DF28F0B6DF18F0952309F0A2CFEB
:100F1000A7CF1124EACFC6DFA0F3959FD1F3950F99
:100F200050E0551F629FF001729FBB27F00DB11D6D
:100F3000639FAA27F00DB11DAA1F649F6627B00DFD
:100F4000A11D661F829F2227B00DA11D621F739FE6
:100F5000B00DA11D621F839FA00D611D221F749FF4
:100F60003327A00D611D231F849F600D211D822F3B
:100F7000762F6A2F11249F5750408AF0E1F0882382
:100F80004AF0EE0FFF1FBB1F661F771F881F91508F
:100F90005040A9F79E3F510570F05CCFA6CF5F3F50
:100FA000ECF3983EDCF3869577956795B795F795C2
:100FB000E7959F5FC1F7FE2B880F911D969587954A
:100FC00097F90895EE0FFF1F0024001C0BBE079039
:0A0FD000F691E02D0994F894FFCF8C
:100FDA005F000000000000000000000000000000A8
:100FEA00000E0A0E040E04040A4C6574277320705E
:100FFA006C61792048616E676D616E2120506C6169
:10100A0079657220312C20656E74657220612077B3
:10101A006F726420666F7220506C6179657220323B
:10102A0020746F2067756573732E0000200000001E
:10103A000000000000000000000000000020010085
:10104A0000003136204C657474657273204D415826
:10105A000000000000008040300804020000000088
:10106A000000000000000000000000000000000076
:10107A000000000000000000000000000000000066
:10108A000000000000000000000000000000000056
:10109A0000000102020408101020408080000000B5
:1010AA0000000000002010080403000000000000F7
:1010BA000080000000000000800000000000000026
:1010CA000000000000000000000000000000000016
:1010DA000000000000000000000000000000000006
:1010EA0000000000000000000000000000000000F6
:1010FA00000102040C08102040000000000000005B
:10110A000000000000FF101010101010FF000080F7
:10111A0044442424AC800000FC08040404F80000C1
:10112A00F804040408FC0000205C040404F8080421
:10113A00040CF80000C844242424F80000001C0011
:10114A0004044C90000000000000000000000000B1
:10115A000000000000000000000300000000000082
:10116A000300000102020201010300000300000063
:10117A000003000009121212190F000000020000F9
:10118A000003000000000300000102020201030044
:10119A000001000000000000000000000000000044
:1011AA000000020408102020408000000000000017
:1011BA000000000000000000000000000000000025
:1011CA000000000000000000000000000000000015
:1011DA000000000000000000000000000000000005
:1011EA000000000000000000000000808040201085
:1011FA0008040202010000000000000000000102D1
:10120A0004081020408000000000000000000000D8
:10121A0000000000000000000000000000000000C4
:10122A0000000000000000000000000000000000B4
:10123A000000000000008040402010080402010065
:10124A000000000000000000000000000000000094
:10125A000000000000000000000000000000000084
:10126A000000000000000000000080601008040474
:10127A00040404040810608000000000000000005C
:10128A000000000000000000000000000000000054
:10129A000000000000000000000000000000000044
:1012AA000000000000000000000000000000000034
:1012BA00000000000000000000000000000001061D
:1012CA000810202020E0202010080601000000005D
:1012DA000000000000000000000000000000000004
:1012EA0000000000000000000000000000000000F4
:1012FA0000000000000000000000000000000000E4
:10130A0000000000000000000000000000000000D3
:10131A00000080804040202010FF102020404080A4
:10132A008000000000000000000000000000000033
:10133A0000000000000000000000000000000000A3
:10134A000000000000000000000000000000000093
:10135A000000000000000000000000000000000083
:10136A0000000000000000000000000000FF000074
:10137A000000000000000000000000000000000063
:10138A000000000000000000000000000000000053
:10139A000000000000000000000000000000000043
:1013AA000000000000000000000000000000000033
:1013BA000000000000000000000000000000000023
:1013CA00807F800000000000000000000000000094
:1013DA000000000000000000000000000000000003
:1013EA0000000000000000000000000000000000F3
:1013FA0000000000000000000000000000000000E3
:10140A00000000000000000000000000002010188A
:10141A000804020100000001020408102000000074
:10142A0000000000000000000000000000000000B2
:10143A0000000000000000000000000000000000A2
:10144A000000000000000000000000000000000092
:10145A000000000000000000000000000000000082
:10146A00000080601008040404040404081060806A
:10147A000000000000000000000000000000000062
:10148A000000000000000000000000000000000052
:10149A000000000000000000000000000000000042
:1014AA000000000000000000000000000000000032
:1014BA0000000000000001060810202020E0202083
:1014CA0010080601000000000000000000000000F3
:1014DA000000000000000000000000000000000002
:1014EA0000000000000000000000000000000000F2
:1014FA0000000000000000000000000000000000E2
:10150A000000000000000000000080804040202011
:10151A0010FF1020204040808000000000000000E2
:10152A0000000000000000000000000000000000B1
:10153A0000000000000000000000000000000000A1
:10154A000000000000000000000000000000000091
:10155A000000000000000000000000000000000081
:10156A000000000000FF0000000000000000000072
:10157A000000000000000000000000000000000061
:10158A000000000000000000000000000000000051
:10159A000000000000000000000000000000000041
:1015AA000000000000000000000000000000000031
:1015BA000000000000000000807F00000000000022
:1015CA000000000000000000000000000000000011
:1015DA000000000000000000000000000000000001
:1015EA0000000000000000000000000000000000F1
:1015FA0000000000000000000000000000000000E1
:10160A000000000000201018080402010000000079
:10161A0000000000000000000000000000000000C0
:10162A0000000000000000000000000000000000B0
:10163A0000000000000000000000000000000000A0
:10164A000000000000000000000000000000000090
:10165A000000000000000000000080601008040480
:10166A000404040408106080000000000000000068
:10167A000000000000000000000000000000000060
:10168A000000000000000000000000000000000050
:10169A000000000000000000000000000000000040
:1016AA000000000000000000000000000000010629
:1016BA000810202020E02020100806010000000069
:1016CA000000000000000000000000000000000010
:1016DA000000000000000000000000000000000000
:1016EA0000000000000000000000000000000000F0
:1016FA0000000000000000000000000000000000E0
:10170A00000080804040202010FF102020404080B0
:10171A00800000000000000000000000000000003F
:10172A0000000000000000000000000000000000AF
:10173A00000000000000000000000000000000009F
:10174A00000000000000000000000000000000008F
:10175A0000000000000000000000000000FF000080
:10176A00000000000000000000000000000000006F
:10177A00000000000000000000000000000000005F
:10178A00000000000000000000000000000000004F
:10179A00000000000000000000000000000000003F
:1017AA00000000000000000000000000000000002F
:1017BA00003F0000000000000000000000000000E0
:1017CA00000000000000000000000000000000000F
:1017DA0000000000000000000000000000000000FF
:1017EA0000000000000000000000000000000000EF
:1017FA0000000000000000000000000000000000DF
:10180A0000000000000000000000000000000000CE
:10181A0000000000000000000000000000000000BE
:10182A0000000000000000000000000000000000AE
:10183A00000000000000000000000000000000009E
:10184A00000000000000000000000000000000008E
:10185A000000806010080404040404040810608076
:10186A00000000000000000000000000000000006E
:10187A00000000000000000000000000000000005E
:10188A00000000000000000000000000000000004E
:10189A00000000000000000000000000000000003E
:1018AA0000000000000001060810202020E020208F
:1018BA0010080601000000000000000000000000FF
:1018CA00000000000000000000000000000000000E
:1018DA0000000000000000000000000000000000FE
:1018EA0000000000000000000000000000000000EE
:1018FA00000000000000000000008080404020201E
:10190A0010FF0000000000000000000000000000BE
:10191A0000000000000000000000000000000000BD
:10192A0000000000000000000000000000000000AD
:10193A00000000000000000000000000000000009D
:10194A00000000000000000000000000000000008D
:10195A000000000000FF000000000000000000007E
:10196A00000000000000000000000000000000006D
:10197A00000000000000000000000000000000005D
:10198A00000000000000000000000000000000004D
:10199A00000000000000000000000000000000003D
:1019AA000000000000000000003F000000000000EE
:1019BA00000000000000000000000000000000001D
:1019CA00000000000000000000000000000000000D
:1019DA0000000000000000000000000000000000FD
:1019EA0000000000000000000000000000000000ED
:1019FA0000000000000000000000000000000000DD
:101A0A0000000000000000000000000000000000CC
:101A1A0000000000000000000000000000000000BC
:101A2A0000000000000000000000000000000000AC
:101A3A00000000000000000000000000000000009C
:101A4A00000000000000000000008060100804048C
:101A5A000404040408106080000000000000000074
:101A6A00000000000000000000000000000000006C
:101A7A00000000000000000000000000000000005C
:101A8A00000000000000000000000000000000004C
:101A9A000000000000000000000000000000010635
:101AAA000810202020202020100806010000000035
:101ABA00000000000000000000000000000000001C
:101ACA00000000000000000000000000000000000C
:101ADA0000000000000000000000000000000000FC
:101AEA0000000000000000000000000000000000EC
:101AFA0000000000000000000000000000000000DC
:101B0A0000000000000000000000000000000000CB
:101B1A0000000000000000000000000000000000BB
:101B2A0000000000000000000000000000000000AB
:101B3A00000000000000000000000000000000009B
:101B4A00000000000000000000000000000000008B
:101B5A00000000000000000000000000000000007B
:101B6A00000000000000000000000000000000006B
:101B7A00000000000000000000000000000000005B
:101B8A00000000000000000000000000000000004B
:101B9A00000000000000000000000000000000003B
:101BAA00000000000000000000000000000000002B
:101BBA00000000000000000000000000000000001B
:101BCA00000000000000000000000000000000000B
:101BDA0000000000000000000000000000000000FB
:101BEA0000000000000000000000000000000000EB
:101BFA0000000000000000000000000000000000DB
:101C0A0000000000000000000000000000000000CA
:101C1A0000000000000000000000000000000000BA
:021C2A000000B8
:00000001FF
