S00F000048616E676D616E2E737265635B
S11300007FC000009AC0000098C0000096C00000A5
S113001094C0000092C0000090C000008EC0000098
S11300208CC000008AC0000088C0000086C00000A8
S113003084C0000010C1000080C000007EC0000029
S11300407CC000007AC0000078C0000076C00000C8
S113005074C0000072C0000070C000006EC00000D8
S11300606CC000006AC0000068C0000066C00000E8
S113007064C0000062C0000060C000005EC00000F8
S11300805CC000005AC0000058C00000E5010E0327
S11300900E030E030E030E030E030E030E030E03D4
S11300A00E030E030E030E030E030E030E030E03C4
S11300B00E030E030E030E030E030E030E030E03B4
S11300C00E030E030E030E030E030E030E030E03A4
S11300D00E030E030E030E030E030E030E030E0394
S11300E00E030E030E030E030E030E030E03EB01A9
S11300F0F101140237025A027D02A002C302E70290
S113010011241FBECFEFD0E4DEBFCDBF13E0A0E0CB
S1130110B1E0E6EEF9E000E00BBF02C007900D92FB
S1130120AA35B107D9F723E0AAE5B3E001C01D92CF
S1130130AD37B207E1F7CBD354C462CF1816190612
S11301405CF00895000021503109E1F74F5F5F4FE3
S11301508417950719F4089540E050E027E033E050
S1130160F1CF10988BB9119A0000119882E090E0B9
S1130170E5CF089581E0F5CF0895813118F48158D1
S1130180F0CF08958155EDCF089584E690E0D6DF51
S113019088E3E7DF86E0E5DF8FE0E3DF81E0E1DFAE
S11301A08AE090E0CBCF0895109A8BB9119A0000A1
S11301B0119881E090E0C2CF08950F931F93CF93DD
S11301C0DF93182FEB01D6DF8881882351F001E0FB
S11301D0010F812FD2DF8991E7DF102F88818111F0
S11301E0F6CFDF91CF911F910F91089560935D0138
S11301F070935E0180935F01909360016093740338
S113020070937503809376039093770308958BE03E
S1130210809381008DE790E090938900809388001B
S113022082E080936F001092850010928400809188
S11302305D0190915E01A0915F01B0916001809396
S1130240740390937503A0937603B09377038FB7E9
S113025080688FBF08951F920F920FB60F921124DA
S11302608F939F93AF93BF93809174039091750381
S1130270A0917603B09177030197A109B109809306
S1130280740390937503A0937603B0937703892B3B
S11302908A2B8B2B99F481E08093780380915D0104
S11302A090915E01A0915F01B0916001809374030D
S11302B090937503A0937603B0937703BF91AF91A6
S11302C09F918F910F900FBE0F901F9018958FEEF6
S11302D088B90000309B2EC0319B2EC0329B2EC0AB
S11302E0339B2EC08FED88B90000309B2BC0319B0F
S11302F02BC0329B2BC0339B2BC08FEB88B90000E3
S1130300309B28C0319B28C0329B28C0339B28C017
S11303108FE788B90000309B25C0319B25C0329BF4
S113032025C0339B25C0809173038F5F8093730333
S113033080E0089581E3089584E3089587E30895B0
S11303408AE2089582E3089585E3089588E3089591
S113035080E3089583E3089586E3089589E3089587
S113036083E2089581E4089582E4089583E408957E
S113037084E40895CF93DF93EC0181309105C9F0B3
S11303808230910531F0892B21F081E080937B0349
S113039002C0C1E0D0E0C130D10539F0C230D1058E
S11303A041F0209709F454C135C191DF809379035A
S11303B04FC1E09179038E2F90E08A33910508F0C4
S11303C02DC1FC01EA5BFF4F03C380E280935C0113
S11303D0C2E0D0E03DC180E280935C01C2E0D0E0A5
S11303E037C1909173038BEA989F812D11248695D0
S11303F0282F220F820F981B913031F481E48093CF
S11304005C01C2E0D0E024C1923031F482E48093F4
S11304105C01C2E0D0E01CC1911103C183E480936C
S11304205C01C2E0D0E014C1909173038BEA989F01
S1130430812D11248695282F220F820F981B91302D
S113044031F484E480935C01C2E0D0E001C19230D5
S113045031F485E480935C01C2E0D0E0F9C09111ED
S1130460E3C086E480935C01C2E0D0E0F1C09091E7
S113047073038BEA989F812D11248695282F220FD0
S1130480820F981B913031F487E480935C01C2E0C1
S1130490D0E0DEC0923031F488E480935C01C2E0A5
S11304A0D0E0D6C09111C3C089E480935C01C2E05E
S11304B0D0E0CEC0909173038BEA989F812D1124D4
S11304C08695282F220F820F981B913031F48AE4ED
S11304D080935C01C2E0D0E0BBC0923031F48BE485
S11304E080935C01C2E0D0E0B3C09111A3C08CE45E
S11304F080935C01C2E0D0E0ABC0909173038BEABF
S1130500989F812D11248695282F220F820F981BE6
S1130510913031F48DE480935C01C2E0D0E098C066
S1130520923031F48EE480935C01C2E0D0E090C05C
S1130530911183C080E380935C01C2E0D0E088C065
S1130540809173038370813031F480E580935C0182
S1130550C2E0D0E07DC0823031F481E580935C015B
S1130560C2E0D0E075C0833031F482E580935C0151
S1130570C2E0D0E06DC0811163C083E580935C016B
S1130580C2E0D0E065C0909173038BEA989F812DFF
S113059011248695282F220F820F981B913031F455
S11305A084E580935C01C2E0D0E052C0923031F423
S11305B085E580935C01C2E0D0E04AC0933009F045
S11305C042C086E580935C01C2E0D0E041C08091E6
S11305D073038370813031F487E580935C01C2E05A
S11305E0D0E036C0823031F488E580935C01C2E00B
S11305F0D0E02EC0833031F489E580935C01C2E001
S1130600D0E026C0811122C08AE580935C01C2E05B
S1130610D0E01EC081E080937B031AC0C2E0D0E02A
S113062017C0C2E0D0E014C0C2E0D0E011C0C2E004
S1130630D0E00EC0C2E0D0E00BC0C2E0D0E008C001
S1130640C2E0D0E005C0C2E0D0E002C0C2E0D0E029
S1130650CE01DF91CF910895CF93C82F2998A7D1C8
S11306608C2FB1D1299AA5D1CF910895EF92FF9201
S11306700F931F93CF93DF938C01299A98D1F8019C
S113068001900020E9F73197E01BF10B1E161F06BD
S11306902CF5E8010E0F1F1F1EC0288130E02052E8
S11306A03109F901EE0FFF1FEE0FFF1FE20FF31FD9
S11306B0E758FE4FEE0DFF1D808185D18FEFE81ABC
S11306C0F80A85E0E816F10441F780E07CD1219630
S11306D00C171D0719F0E12CF12CDFCF6AD1DF9143
S11306E0CF911F910F91FF90EF90089528982FEFCD
S11306F080E792E0215080409040E1F700C0000084
S1130700289A0895F3DF81E2A7DF80ECA5DF87E074
S1130710A3DF83E1A1DF80E29FDF8CE09DCF08951A
S1130720CF93C62F99DF8C2F97DFCF910895CF9366
S1130730DF933DD1299AC8EFD1E080E044D12197DD
S1130740E1F7299836D1DF91CF9108950F931F9344
S1130750CF93DF93883070F48B01880F880F880F54
S1130760805CFFDCE801085F1F4F89911DDDC01725
S1130770D107D9F7DF91CF911F910F91089582305E
S1130780910581F083309105B1F0009711F5F2DC09
S113079012D1B8DFCCDF60E880E4C2DF81E691E00B
S11307A065DF1FC0809170038433D8F0E3DC81E0FF
S11307B08093720360C080B1809586FF5CC0DADCF0
S11307C06AE671E081E1F9DC81E0D7DC84E090E065
S11307D008958230910529F08330910509F076C09F
S11307E04AC01092720380E08F5FC7DCE09172030D
S11307F0F0E0E75EFE4F8081D7DC809172038F5F6B
S113080080937203803180F39091190190937A035D
S1130810E9E1F1E02CE531E0818181932E173F0776
S1130820D9F790935C0161E171E080E08FDF81E1B1
S1130830A4DC80E0B9DC84E1A0DC80E0B5DC87E105
S11308409CDC80E0B1DC8AE198DC80E0ADDC8DE109
S113085094DC80E0A9DC80E290DC80E0A5DC83E22B
S11308608CDC80E0A1DC809170038F5F8093700347
S113087082E090E0089580B1809585FF18C0809152
S113088071038031A0F4909172039F5F909372037F
S1130890E82FF0E0E050FF4F90917C0390838F5F4E
S11308A08093710380E280935C01109273038091C2
S11308B0720363DC80915C01803231F080937C03AD
S11308C073DC83E090E0089583E090E008958FEF77
S11308D08AB91BB881B982B984B915B880EF87B9D0
S11308E08FE088B9EAE5F3E0108284EF91E0A0E0BC
S11308F0B0E081839283A383B48385839683A783A3
S1130900B0878FEB93E09287818713868CE291E026
S1130910A0E0B0E084879587A687B787808B918B0A
S1130920A28BB38B8AEB91E0958B848B64E670E0A9
S113093080E090E05BDC6BDC28DC0F2EF0E7EF2E30
S1130940F3E0FF2EF02DCAE5D3E08E014D815E81E8
S11309506F81788589819A81AB81BC814817590759
S11309606A077B0761F48881E985FA85082E000C03
S1130970990B099588831D821E821F821886F801AF
S113098085819681A781B0858C599F4FAF4FBF4F0A
S113099085839683A783B0872B96CE15DF05A9F6AA
S11309A0809178038823E1F310927803CCCF2C98BC
S11309B008952C9A089583EB84B9289A26982C9A42
S11309C081E58CBD08958EBD0DB407FEFDCF08955D
S11309D0EE0FFF1F0024001C0BBE0790F691E02DC4
S10909E00994F894FFCF16
S11309E620000000000000000000000000000000DD
S11309F6000E0A0E040E04040A4C65742773207054
S1130A066C61792048616E676D616E2120506C615E
S1130A1679657220312C20656E74657220612077A9
S1130A266F726420666F7220506C61796572203231
S1130A3620746F2067756573732E00002001000013
S1130A460048616E676D616E21003136204C657415
S1130A5674657273204D41580000000000000000C8
S1130A665F00000007000700147F147F14242A7F08
S1130A762A122313086462364955225000050300DE
S1130A8600001C2241000041221C0014083E0814E8
S1130A9608083E0808005030000008080808080046
S1130AA66060000020100804023E5149453E0042A1
S1130AB67F400042615149462141454B3118141289
S1130AC67F1027454545393C4A4949300171090596
S1130AD6033649494936064949291E003636000077
S1130AE6005636000008142241001414141414008D
S1130AF6412214080201510906324979413E7E1108
S1130B0611117E7F494949363E414141227F414187
S1130B16221C7F494949417F090909013E41494946
S1130B267A7F0808087F00417F41002040413F0149
S1130B367F081422417F404040407F020C027F7FA1
S1130B460408107F3E4141413E7F090909063E41A2
S1130B5651215E7F09192946464949493101017FD8
S1130B6601013F4040403F1F2040201F3F40384086
S1130B763F63140814630708700807615149454325
S1130B86007F41410002040810200041417F000417
S1130B960201020440404040400001020400205487
S1130BA65454787F484444383844444420384444B0
S1130BB6487F3854545418087E0901020C52525284
S1130BC63E7F0804047800447D40002040443D00F4
S1130BD67F1028440000417F40007C041804787C80
S1130BE60804047838444444387C1414140808145B
S1130BF614187C7C080404084854545420043F44C4
S1130C0640203C4040207C1C2040201C3C4030407E
S1130C163C44281028440C5050503C4464544C44E2
S1130C26000836410000007F00000041360800102D
S10D0C3608081008784641467800CB
S9030000FC
