S00F000048616E676D616E2E737265635B
S11300008AC00000A5C00000A3C00000A1C0000079
S11300109FC000009DC000009BC0000099C000006C
S113002097C0000095C0000093C0000091C000007C
S11300308FC0000002C100008BC0000089C0000016
S113004087C0000085C0000083C0000081C000009C
S11300507FC000007DC000007BC0000079C00000AC
S113006077C0000075C0000073C0000071C00000BC
S11300706FC000006DC000006BC0000069C00000CC
S113008067C0000065C0000063C00000D7013C02E7
S11300903C023C023C023C023C023C023C023C026C
S11300A03C023C023C023C023C023C023C023C025C
S11300B03C023C023C023C023C023C023C023C024C
S11300C03C023C023C023C023C023C023C023C023C
S11300D03C0236023C023C023C023C023C023C0232
S11300E02B023C023C023C023C023C023102DD0198
S11300F0E301E901EF01F501FB01010207020D0231
S11301003C023C023C023C023C023C023C02130224
S113011019021F02250211241FBECFEFD0E4DEBF57
S1130120CDBF11E0A0E0B1E0E0EBF6E000E00BBFF2
S113013002C007900D92A035B107D9F721E0A0E5E0
S1130140B1E001C01D92A137B207E1F73AD2AEC2C5
S113015057CF181619065CF0089500002150310994
S1130160E1F74F5F5F4F8417950719F4089540E056
S113017050E027E033E0F1CF10988BB9119A0000DA
S1130180119882E090E0E5CF089581E0F5CF0895DD
S1130190813118F48158F0CF08958155EDCF089539
S11301A084E690E0D6DF88E3E7DF86E0E5DF8FE0F2
S11301B0E3DF81E0E1DF8AE090E0CBCF0895109A9D
S11301C08BB9119A0000119881E090E0C2CF089594
S11301D060934C0170934D0180934E0190934F01B5
S11301E06093690170936A0180936B0190936C0131
S11301F008958BE0809381008DE790E090938900CF
S11302008093880082E080936F00109285001092A2
S1130210840080914C0190914D01A0914E01B091C8
S11302204F018093690190936A01A0936B01B0938D
S11302306C018FB780688FBF08951F920F920FB61D
S11302400F9211248F939F93AF93BF938091690171
S113025090916A01A0916B01B0916C010197A10981
S1130260B1098093690190936A01A0936B01B093E3
S11302706C01892B8A2B8B2B99F481E080936D017F
S113028080914C0190914D01A0914E01B0914F018C
S11302908093690190936A01A0936B01B0936C0100
S11302A0BF91AF919F918F910F900FBE0F901F90B0
S11302B018958FEE88B90000309B2EC0319B2EC05C
S11302C0329B2EC0339B2EC08FED88B90000309B2B
S11302D02BC0319B2BC0329B2BC0339B2BC08FEB8D
S11302E088B90000309B28C0319B28C0329B28C0AD
S11302F0339B28C08FE788B90000309B25C0319B11
S113030025C0329B25C0339B25C0809168018F5F37
S11303108093680180E0089581E3089584E308955B
S113032087E308958AE2089582E3089585E30895B2
S113033088E3089580E3089583E3089586E30895A8
S113034089E3089583E2089581E4089582E4089599
S113035083E4089584E40895CF93DF93EC0181301E
S11303609105C9F08230910531F0892B21F081E0AB
S11303708093700102C0C1E0D0E0C130D10539F0F2
S1130380C230D10541F0209709F47FC07BC091DFD2
S113039080936E017AC0E0916E018E2F90E08534D7
S11303A0910508F069C0FC01EA5BFF4F76C18FE15B
S11303B080934B01C2E0D0E068C08FE180934B0191
S11303C0C2E0D0E062C082E080934B01C2E0D0E0A2
S11303D05CC083E080934B01C2E0D0E056C084E06F
S11303E080934B01C2E0D0E050C085E080934B0184
S11303F0C2E0D0E04AC086E080934B01C2E0D0E086
S113040044C087E080934B01C2E0D0E03EC088E066
S113041080934B01C2E0D0E038C089E080934B0167
S1130420C2E0D0E032C083E780934B01C2E0D0E069
S11304302CC085E680934B01C2E0D0E026C083E463
S113044080934B01C2E0D0E020C084E480934B0150
S1130450C2E0D0E01AC08AE280934B01C2E0D0E04F
S113046014C010924B01C2E0D0E00FC083E280932D
S11304704B01C2E0D0E009C08BE180934B01C2E0A4
S1130480D0E003C081E080937001CE01DF91CF9171
S113049008950F931F93CF93DF93883070F48B01EB
S11304A0880F880F880F805C67DEE801085F1F4FA4
S11304B0899185DEC017D107D9F7DF91CF911F91BC
S11304C00F9108958230910541F08330910509F42C
S11304D05CC0009741F459DE0EC0809166018433FC
S11304E050F053DE52C08230910529F083309105DB
S11304F009F066C04AC01092670180E08F5F48DE51
S1130500E0916701F0E0E85FFE4F808158DE809162
S113051067018F5F80936701803180F390910801B8
S113052090936F01E8E0F1E02BE431E08181819365
S1130530E217F307D9F790934B0160E071E080E094
S1130540A8DF81E125DE80E03ADE84E121DE80E07F
S113055036DE87E11DDE80E032DE8AE119DE80E0EE
S11305602EDE8DE115DE80E02ADE80E211DE80E001
S113057026DE83E20DDE80E022DE809166018F5F5D
S11305808093660182E090E0089580914B018F3161
S1130590A9F081E0FDDD80914B019FEB980F943031
S11305A020F0883711F0833221F409DE83E090E0F3
S11305B00895805D04DE83E090E0089583E090E098
S11305C008958FEF8AB91BB881B982B984B915B877
S11305D080EF87B98FE088B9E0E5F1E0108284EF1D
S11305E091E0A0E0B0E081839283A383B483858308
S11305F09683A783B08722E632E032872187138669
S113060084879587A687B787808B918BA28BB38BC2
S11306108CEA91E0958B848B64E670E080E090E056
S1130620D7DDE7DDBDDD0F2EF6E6EF2EF1E0FF2E80
S1130630F02DC0E5D1E08E014D815E816F8178851A
S113064089819A81AB81BC81481759076A077B0766
S113065061F48881E985FA85082E000C990B0995C7
S113066088831D821E821F821886F80185819681E7
S1130670A781B0858C599F4FAF4FBF4F8583968319
S1130680A783B0872B96CE15DF05A9F680916D015F
S11306908823E1F310926D01CCCFEE0FFF1F0024ED
S11306A0001C0BBE0790F691E02D0994F894FFCF3F
S11306B00E0A0E040E04040A4C6574277320706C31
S11306C061792048616E676D616E2120506C61799B
S11306D0657220312C20656E746572206120776FFD
S11306E0726420666F7220506C61796572203220CA
S11306F0746F2067756573732E00001F010000007E
S9030000FC
