S00F000048616E676D616E2E737265635B
S11300007FC000009AC0000098C0000096C00000A5
S113001094C0000092C0000090C000008EC0000098
S11300208CC000008AC0000088C0000086C00000A8
S113003084C0000010C1000080C000007EC0000029
S11300407CC000007AC0000078C0000076C00000C8
S113005074C0000072C0000070C000006EC00000D8
S11300606CC000006AC0000068C0000066C00000E8
S113007064C0000062C0000060C000005EC00000F8
S11300805CC000005AC0000058C00000E5010E0327
S11300900E030E030E030E030E030E030E030E03D4
S11300A00E030E030E030E030E030E030E030E03C4
S11300B00E030E030E030E030E030E030E030E03B4
S11300C00E030E030E030E030E030E030E030E03A4
S11300D00E030E030E030E030E030E030E030E0394
S11300E00E030E030E030E030E030E030E03EB01A9
S11300F0F101140237025A027D02A002C302E70290
S113010011241FBECFEFD0E4DEBFCDBF11E0A0E0CD
S1130110B1E0E6EEF9E000E00BBF02C007900D92FB
S1130120A238B107D9F721E0A2E8B1E001C01D92DD
S1130130A63AB207E1F7CBD354C462CF1816190616
S11301405CF00895000021503109E1F74F5F5F4FE3
S11301508417950719F4089540E050E027E033E050
S1130160F1CF10988BB9119A0000119882E090E0B9
S1130170E5CF089581E0F5CF0895813118F48158D1
S1130180F0CF08958155EDCF089584E690E0D6DF51
S113019088E3E7DF86E0E5DF8FE0E3DF81E0E1DFAE
S11301A08AE090E0CBCF0895109A8BB9119A0000A1
S11301B0119881E090E0C2CF08950F931F93CF93DD
S11301C0DF93182FEB01D6DF8881882351F001E0FB
S11301D0010F812FD2DF8991E7DF102F88818111F0
S11301E0F6CFDF91CF911F910F91089560936E0127
S11301F070936F01809370019093710160939C01DF
S113020070939D0180939E0190939F0108958BE0CC
S1130210809381008DE790E090938900809388001B
S113022082E080936F001092850010928400809188
S11302306E0190916F01A0917001B0917101809352
S11302409C0190939D01A0939E01B0939F018FB751
S113025080688FBF08951F920F920FB60F921124DA
S11302608F939F93AF93BF9380919C0190919D0135
S1130270A0919E01B0919F010197A109B1098093BA
S11302809C0190939D01A0939E01B0939F01892BA3
S11302908A2B8B2B99F481E08093A00180916E01CD
S11302A090916F01A0917001B091710180939C01B4
S11302B090939D01A0939E01B0939F01BF91AF9134
S11302C09F918F910F900FBE0F901F9018958FEEF6
S11302D088B90000309B2EC0319B2EC0329B2EC0AB
S11302E0339B2EC08FED88B90000309B2BC0319B0F
S11302F02BC0329B2BC0339B2BC08FEB88B90000E3
S1130300309B28C0319B28C0329B28C0339B28C017
S11303108FE788B90000309B25C0319B25C0329BF4
S113032025C0339B25C080919B018F5F80939B01E7
S113033080E0089581E3089584E3089587E30895B0
S11303408AE2089582E3089585E3089588E3089591
S113035080E3089583E3089586E3089589E3089587
S113036083E2089581E4089582E4089583E408957E
S113037084E40895CF93DF93EC0181309105C9F0B3
S11303808230910531F0892B21F081E08093A30123
S113039002C0C1E0D0E0C130D10539F0C230D1058E
S11303A041F0209709F454C135C191DF8093A10134
S11303B04FC1E091A1018E2F90E08A33910508F09E
S11303C02DC1FC01EA5BFF4F03C380E280936D0102
S11303D0C2E0D0E03DC180E280936D01C2E0D0E094
S11303E037C190919B018BEA989F812D11248695AA
S11303F0282F220F820F981B913031F481E48093CF
S11304006D01C2E0D0E024C1923031F482E48093E3
S11304106D01C2E0D0E01CC1911103C183E480935B
S11304206D01C2E0D0E014C190919B018BEA989FCA
S1130430812D11248695282F220F820F981B91302D
S113044031F484E480936D01C2E0D0E001C19230C4
S113045031F485E480936D01C2E0D0E0F9C09111DC
S1130460E3C086E480936D01C2E0D0E0F1C09091D6
S11304709B018BEA989F812D11248695282F220FAA
S1130480820F981B913031F487E480936D01C2E0B0
S1130490D0E0DEC0923031F488E480936D01C2E094
S11304A0D0E0D6C09111C3C089E480936D01C2E04D
S11304B0D0E0CEC090919B018BEA989F812D1124AE
S11304C08695282F220F820F981B913031F48AE4ED
S11304D080936D01C2E0D0E0BBC0923031F48BE474
S11304E080936D01C2E0D0E0B3C09111A3C08CE44D
S11304F080936D01C2E0D0E0ABC090919B018BEA88
S1130500989F812D11248695282F220F820F981BE6
S1130510913031F48DE480936D01C2E0D0E098C055
S1130520923031F48EE480936D01C2E0D0E090C04B
S1130530911183C08FE480936D01C2E0D0E088C044
S113054080919B018370813031F480E580936D014B
S1130550C2E0D0E07DC0823031F481E580936D014A
S1130560C2E0D0E075C0833031F482E580936D0140
S1130570C2E0D0E06DC0811163C083E580936D015A
S1130580C2E0D0E065C090919B018BEA989F812DD9
S113059011248695282F220F820F981B913031F455
S11305A084E580936D01C2E0D0E052C0923031F412
S11305B085E580936D01C2E0D0E04AC0933009F034
S11305C042C086E580936D01C2E0D0E041C08091D5
S11305D09B018370813031F487E580936D01C2E023
S11305E0D0E036C0823031F488E580936D01C2E0FA
S11305F0D0E02EC0833031F489E580936D01C2E0F0
S1130600D0E026C0811122C08AE580936D01C2E04A
S1130610D0E01EC081E08093A3011AC0C2E0D0E004
S113062017C0C2E0D0E014C0C2E0D0E011C0C2E004
S1130630D0E00EC0C2E0D0E00BC0C2E0D0E008C001
S1130640C2E0D0E005C0C2E0D0E002C0C2E0D0E029
S1130650CE01DF91CF910895CF93C82F2998A7D1C8
S11306608C2FB1D1299AA5D1CF91089528982FEF35
S113067080E792E0215080409040E1F700C0000004
S1130680289A0895F3DF81E2E7DF80ECE5DF87E075
S1130690E3DF83E1E1DF80E2DFDF8CE0DDCF08959B
S11306A0CF93DF9384D1299AC8EFD1E080E08BD136
S11306B02197E1F729987DD1DF91CF9108950F9388
S11306C01F93CF93DF93883070F48B01880F880FCA
S11306D0880F805C46DDE801085F1F4F899164DD67
S11306E0C017D107D9F7DF91CF911F910F910895CA
S11306F0CF93DF938230910589F01CF4009749F081
S113070042C083309105D1F08430910509F439C099
S11307103AC030DD50D1B6DFC3DF41C080919801CB
S1130720843308F43CC026DD62E771E081E145DDF5
S113073081E023DD81E080939A017BC080B18095C4
S113074086FF77C017DD82E090E0F8DC80919901A4
S1130750882389F0C0E0DFE5EC2FF0E0E050FF4FA4
S1130760D08381E18C0F09DD8D2F1EDDCF5F809159
S11307709901C81788F381E000DD81E080939A0134
S113078081C080B17FC08330910509F452C08430A8
S1130790910509F477C08230910509F095C0109253
S11307A09A0180E08F5FE9DCE0919A01F0E0E75E76
S11307B0FE4F8081F9DC80919A018F5F80939A01CA
S11307C0803180F3909119019093A201E9E1F1E065
S11307D02CE531E0818181932E173F07D9F790935F
S11307E05C0161E171E080E06ADF81E1C6DC80E008
S11307F0DBDC84E1C2DC80E0D7DC87E1BEDC80E0C6
S1130800D3DC8AE1BADC80E0CFDC8DE1B6DC80E0C9
S1130810CBDC80E2B2DC80E0C7DC83E2AEDC80E0EB
S1130820C3DC809198018F5F8093980182E090E00F
S11308304BC080B1809585FF18C0809199018031AB
S1130840A0F490919A019F5F90939A01E82FF0E0B1
S1130850E45AFE4F9091A50190838F5F8093990194
S113086080E280936D0110929B0180919A0185DC56
S113087080916D01803219F18093A50195DC83E0AC
S113088090E022C080B1809585FF0DC080919901D0
S1130890803148F48091A5018093A40180E2809383
S11308A06D0110929B0181E068DC80916D018032C2
S11308B049F08093A50178DC84E090E005C083E0F2
S11308C090E002C084E090E0DF91CF9108958FEF33
S11308D08AB91BB881B982B984B915B880EF87B9D0
S11308E08FE088B9E2E8F1E0108284EF91E0A0E0C3
S11308F0B0E081839283A383B48385839683A783A3
S1130900B08788E793E09287818713868CE291E031
S1130910A0E0B0E084879587A687B787808B918B0A
S1130920A28BB38B8AEB91E0958B848B64E670E0A9
S113093080E090E05BDC6BDC28DC0F2EF8E9EF2E26
S1130940F1E0FF2EF02DC2E8D1E08E014D815E81F1
S11309506F81788589819A81AB81BC814817590759
S11309606A077B0761F48881E985FA85082E000C03
S1130970990B099588831D821E821F821886F801AF
S113098085819681A781B0858C599F4FAF4FBF4F0A
S113099085839683A783B0872B96CE15DF05A9F6AA
S11309A08091A0018823E1F31092A001CCCF2C9870
S11309B008952C9A089583EB84B9289A26982C9A42
S11309C081E58CBD08958EBD0DB407FEFDCF08955D
S11309D0EE0FFF1F0024001C0BBE0790F691E02DC4
S10909E00994F894FFCF16
S11309E620000000000000000000000000000000DD
S11309F6000E0A0E040E04040A4C65742773207054
S1130A066C61792048616E676D616E2120506C615E
S1130A1679657220312C20656E74657220612077A9
S1130A266F726420666F7220506C61796572203231
S1130A3620746F2067756573732E00002000000014
S1130A46000000000000000000000000002001007B
S1130A5600003136204C657474657273204D41581C
S1050A6600008A
S9030000FC
