S00F000048616E676D616E2E737265635B
S11300007FC000009AC0000098C0000096C00000A5
S113001094C0000092C0000090C000008EC0000098
S11300208CC000008AC0000088C0000086C00000A8
S113003084C0000010C1000080C000007EC0000029
S11300407CC000007AC0000078C0000076C00000C8
S113005074C0000072C0000070C000006EC00000D8
S11300606CC000006AC0000068C0000066C00000E8
S113007064C0000062C0000060C000005EC00000F8
S11300805CC000005AC0000058C00000E5010E0327
S11300900E030E030E030E030E030E030E030E03D4
S11300A00E030E030E030E030E030E030E030E03C4
S11300B00E030E030E030E030E030E030E030E03B4
S11300C00E030E030E030E030E030E030E030E03A4
S11300D00E030E030E030E030E030E030E030E0394
S11300E00E030E030E030E030E030E030E03EB01A9
S11300F0F101140237025A027D02A002C302E70290
S113010011241FBECFEFD0E4DEBFCDBF11E0A0E0CD
S1130110B1E0E8E8FEE000E00BBF02C007900D92FA
S1130120A238B107D9F721E0A2E8B1E001C01D92DD
S1130130A73BB207E1F791D4A5C662CF18161906FA
S11301405CF00895000021503109E1F74F5F5F4FE3
S11301508417950719F4089540E050E027E033E050
S1130160F1CF10988BB9119A0000119882E090E0B9
S1130170E5CF089581E0F5CF0895813118F48158D1
S1130180F0CF08958155EDCF089584E690E0D6DF51
S113019088E3E7DF86E0E5DF8FE0E3DF81E0E1DFAE
S11301A08AE090E0CBCF0895109A8BB9119A0000A1
S11301B0119881E090E0C2CF08950F931F93CF93DD
S11301C0DF93182FEB01D6DF8881882351F001E0FB
S11301D0010F812FD2DF8991E7DF102F88818111F0
S11301E0F6CFDF91CF911F910F91089560936E0127
S11301F070936F0180937001909371016093AD01CE
S11302007093AE018093AF019093B00108958BE099
S1130210809381008DE790E090938900809388001B
S113022082E080936F001092850010928400809188
S11302306E0190916F01A0917001B0917101809352
S1130240AD019093AE01A093AF01B093B0018FB70D
S113025080688FBF08951F920F920FB60F921124DA
S11302608F939F93AF93BF938091AD019091AE0113
S1130270A091AF01B091B0010197A109B109809398
S1130280AD019093AE01A093AF01B093B001892B5F
S11302908A2B8B2B99F481E08093B10180916E01BC
S11302A090916F01A0917001B09171018093AD01A3
S11302B09093AE01A093AF01B093B001BF91AF9101
S11302C09F918F910F900FBE0F901F9018958FEEF6
S11302D088B90000309B2EC0319B2EC0329B2EC0AB
S11302E0339B2EC08FED88B90000309B2BC0319B0F
S11302F02BC0329B2BC0339B2BC08FEB88B90000E3
S1130300309B28C0319B28C0329B28C0339B28C017
S11303108FE788B90000309B25C0319B25C0329BF4
S113032025C0339B25C08091AC018F5F8093AC01C5
S113033080E0089581E3089584E3089587E30895B0
S11303408AE2089582E3089585E3089588E3089591
S113035080E3089583E3089586E3089589E3089587
S113036083E2089581E4089582E4089583E408957E
S113037084E40895CF93DF93EC0181309105C9F0B3
S11303808230910531F0892B21F081E08093B40112
S113039002C0C1E0D0E0C130D10539F0C230D1058E
S11303A041F0209709F454C135C191DF8093B20123
S11303B04FC1E091B2018E2F90E08A33910508F08D
S11303C02DC1FC01EA5BFF4F54C580E280936D01AF
S11303D0C2E0D0E03DC180E280936D01C2E0D0E094
S11303E037C19091AC018BEA989F812D1124869599
S11303F0282F220F820F981B913031F481E48093CF
S11304006D01C2E0D0E024C1923031F482E48093E3
S11304106D01C2E0D0E01CC1911103C183E480935B
S11304206D01C2E0D0E014C19091AC018BEA989FB9
S1130430812D11248695282F220F820F981B91302D
S113044031F484E480936D01C2E0D0E001C19230C4
S113045031F485E480936D01C2E0D0E0F9C09111DC
S1130460E3C086E480936D01C2E0D0E0F1C09091D6
S1130470AC018BEA989F812D11248695282F220F99
S1130480820F981B913031F487E480936D01C2E0B0
S1130490D0E0DEC0923031F488E480936D01C2E094
S11304A0D0E0D6C09111C3C089E480936D01C2E04D
S11304B0D0E0CEC09091AC018BEA989F812D11249D
S11304C08695282F220F820F981B913031F48AE4ED
S11304D080936D01C2E0D0E0BBC0923031F48BE474
S11304E080936D01C2E0D0E0B3C09111A3C08CE44D
S11304F080936D01C2E0D0E0ABC09091AC018BEA77
S1130500989F812D11248695282F220F820F981BE6
S1130510913031F48DE480936D01C2E0D0E098C055
S1130520923031F48EE480936D01C2E0D0E090C04B
S1130530911183C08FE480936D01C2E0D0E088C044
S11305408091AC018370813031F480E580936D013A
S1130550C2E0D0E07DC0823031F481E580936D014A
S1130560C2E0D0E075C0833031F482E580936D0140
S1130570C2E0D0E06DC0811163C083E580936D015A
S1130580C2E0D0E065C09091AC018BEA989F812DC8
S113059011248695282F220F820F981B913031F455
S11305A084E580936D01C2E0D0E052C0923031F412
S11305B085E580936D01C2E0D0E04AC0933009F034
S11305C042C086E580936D01C2E0D0E041C08091D5
S11305D0AC018370813031F487E580936D01C2E012
S11305E0D0E036C0823031F488E580936D01C2E0FA
S11305F0D0E02EC0833031F489E580936D01C2E0F0
S1130600D0E026C0811122C08AE580936D01C2E04A
S1130610D0E01EC081E08093B4011AC0C2E0D0E0F3
S113062017C0C2E0D0E014C0C2E0D0E011C0C2E004
S1130630D0E00EC0C2E0D0E00BC0C2E0D0E008C001
S1130640C2E0D0E005C0C2E0D0E002C0C2E0D0E029
S1130650CE01DF91CF910895CF93C82F29987FD2EF
S11306608C2F89D2299A7DD2CF91089528982FEF83
S113067080E792E0215080409040E1F700C0000004
S1130680289A0895F3DF81E2E7DF80ECE5DF87E075
S1130690E3DF83E1E1DF80E2DFDF8CE0DDCF08959B
S11306A0CF93DF935CD2299AC8EFD1E080E063D284
S11306B02197E1F7299855D2DF91CF910895CF92F0
S11306C0DF92EF92FF926B017C019B01AC01609180
S11306D0820170918301809184019091850150D2AF
S11306E0882309F440C020E030E0A901C701B60125
S11306F047D2811104C085B5887085BD03C085B516
S1130700836085BD28E539E344E75FE3C701B601AB
S113071037D288231CF48FEF87BD1CC020E034E25D
S113072044EF56E4C701B6013DD3181614F417BCC0
S113073011C020E030E040E053E4C701B60136D3F5
S11307409B01AC0160E074E284EF9AE41DD284D290
S1130750615067BD16BCC0928201D0928301E092C1
S11307608401F0928501FF90EF90DF90CF9008957F
S11307708130910579F08230910599F00097B1F4B8
S113078031E020E08091AB01811101C030E0832F82
S1130790922F0CC08091AA018B3080F01092AA0194
S11307A00DC08091AB01811114C008C08130910546
S11307B051F08230910569F0892B79F460E070E0A2
S11307C0CB017DCF089560E070ED82E094E477CFB3
S11307D0089560E070E0CB0172CF089581E484BD98
S11307E08BE085BD60E070E0CB0169CF08950F9385
S11307F01F93CF93DF93883070F48B01880F880F99
S1130800880F805CAEDCE801085F1F4F8991CCDC67
S1130810C017D107D9F7DF91CF911F910F91089598
S11308209091B501ECE5F1E0A0E0B1E02DE631E016
S113083040E051E08191891302C09C9301C0452F8F
S11308401196E217F307B1F74093AB010895CF93E4
S1130850DF938230910589F01CF4009749F042C07F
S113086083309105D1F08430910509F439C03AC040
S113087081DC79D107DF14DF41C08091A701843383
S113088008F43CC077DC62E771E081E196DC81E04A
S113089074DC81E08093A9017BC080B1809586FFE0
S11308A077C068DC82E090E049DC8091A80188236D
S11308B089F0C0E0DFE5EC2FF0E0E050FF4FD0839B
S11308C081E18C0F5ADC8D2F6FDCCF5F8091A80102
S11308D0C81788F381E051DC81E08093A90182C0CC
S11308E080B180C08330910509F452C084309105F1
S11308F009F478C08230910509F0ACC01092A901C6
S113090080E08F5F3ADCE091A901F0E0E75EFE4F02
S113091080814ADC8091A9018F5F8093A901803195
S113092080F3909119019093B301E9E1F1E02CE592
S113093031E0818181932E173F07D9F790935C01B1
S113094061E171E080E053DF81E117DC80E02CDCC1
S113095084E113DC80E028DC87E10FDC80E024DC28
S11309608AE10BDC80E020DC8DE107DC80E01CDC2C
S113097080E203DC80E018DC83E2FFDB80E014DC4F
S11309808091A7018F5F8093A70182E090E062C00D
S113099080B1809585FF18C08091A8018031A0F4B2
S11309A09091A9019F5F9093A901E82FF0E0E45A88
S11309B0FE4F9091B60190838F5F8093A80180E2EF
S11309C080936D011092AC018091A901D6DB8091D6
S11309D06D01803209F439C08093B601E5DB83E010
S11309E090E038C080B1809585FF23C08091B60126
S11309F08093B50180E280936D011092AC0181E097
S1130A00BCDB80E2D1DB81E0B8DB0ADF8091A801A6
S1130A10882379F0C0E081E18C0FAFDBEC2FF0E0AC
S1130A20E050FF4F8081C0DBCF5F8091A801C817E1
S1130A3090F381E0A2DB80916D01803249F08093D4
S1130A40B601B2DB84E090E005C083E090E002C030
S1130A5084E090E0DF91CF9108958FEF8AB91BB8BD
S1130A6081B982B984B915B880EF87B98FE088B9A4
S1130A70E6E8F1E0108284EF91E0A0E0B0E0818349
S1130A809283A383B48385839683A783B08787E205
S1130A9094E09287818713868CE291E0A0E0B0E035
S1130AA084879587A687B787808B918BA28BB38B1E
S1130AB08AEB91E0958B848B168A84E690E0A0E023
S1130AC0B0E0878B908FA18FB28F838F948FA58F87
S1130AD0B68F88EB93E090A3878F64E670E080E0A4
S1130AE090E084DB94DB51DB79DE0F2EF7EAEF2E06
S1130AF0F1E0FF2EF02DC6E8D1E08E014D815E813C
S1130B006F81788589819A81AB81BC8148175907A7
S1130B106A077B0761F48881E985FA85082E000C51
S1130B20990B099588831D821E821F821886F801FD
S1130B3085819681A781B0858C599F4FAF4FBF4F58
S1130B4085839683A783B0872B96CE15DF05A9F6F8
S1130B508091B1018823E1F31092B101CCCF2C989C
S1130B6008952C9A089583EB84B9289A26982C9A90
S1130B7081E58CBD08958EBD0DB407FEFDCF0895AB
S1130B809CD008F481E008950CD0D2C0CAD040F0C3
S1130B90C1D030F021F45F3F19F0B3C05111FCC053
S1130BA0B6C0D7D098F39923C9F35523B1F3951B55
S1130BB0550BBB27AA2762177307840738F09F5F7A
S1130BC05F4F220F331F441FAA1FA9F333D00E2EE9
S1130BD03AF0E0E830D091505040E695001CCAF756
S1130BE029D0FE2F27D0660F771F881FBB1F26171B
S1130BF037074807AB07B0E809F0BB0B802DBF01EE
S1130C00FF2793585F4F2AF09E3F510568F079C043
S1130C10C3C05F3FECF3983EDCF386957795679508
S1130C20B795F7959F5FC9F7880F911D969587959E
S1130C3097F90895E1E0660F771F881FBB1F6217BD
S1130C4073078407BA0720F0621B730B840BBA0B7B
S1130C50EE1F88F7E095089504D06894B1119CC004
S1130C6008957FD088F09F5790F0B92F9927B751F6
S1130C70A0F0D1F0660F771F881F991F1AF0BA955C
S1130C80C9F712C0B13081F086D0B1E0089583C0B5
S1130C90672F782F8827B85F39F0B93FCCF3869552
S1130CA077956795B395D9F73EF4909580957095AF
S1130CB061957F4F8F4F9F4F0895990F0008550FEF
S1130CC0AA0BE0E8FEEF16161706E807F907C0F0CE
S1130CD012161306E407F50798F0621B730B840BD6
S1130CE0950B39F40A2661F0232B242B252B21F4B0
S1130CF008950A2609F4A140A6958FEF811D811D50
S1130D00089597F99F6780E870E060E008959FEF89
S1130D1080EC089500240A9416161706180609068E
S1130D20089500240A94121613061406050608955D
S1130D30092E0394000C11F4882352F0BB0F40F4E5
S1130D40BF2B11F460FF04C06F5F7F4F8F4F9F4F25
S1130D50089557FD9058440F551F59F05F3F71F0A7
S1130D604795880F97FB991F61F09F3F79F087950E
S1130D700895121613061406551FF2CF4695F1DF97
S1130D8008C0161617061806991FF1CF8695710527
S1130D90610508940895E894BB2766277727CB015B
S1130DA097F908958ADF08F48FEF08950BD0C0CF28
S1130DB0B1DF28F0B6DF18F0952309F0A2CFA7CF52
S1130DC01124EACFC6DFA0F3959FD1F3950F50E02D
S1130DD0551F629FF001729FBB27F00DB11D639FE9
S1130DE0AA27F00DB11DAA1F649F6627B00DA11D8F
S1130DF0661F829F2227B00DA11D621F739FB00D35
S1130E00A11D621F839FA00D611D221F749F3327A4
S1130E10A00D611D231F849F600D211D822F762F3D
S1130E206A2F11249F5750408AF0E1F088234AF03A
S1130E30EE0FFF1FBB1F661F771F881F9150504086
S1130E40A9F79E3F510570F05CCFA6CF5F3FECF34E
S1130E50983EDCF3869577956795B795F795E79572
S1130E609F5FC1F7FE2B880F911D9695879597F983
S1130E700895EE0FFF1F0024001C0BBE0790F6918F
S10B0E80E02D0994F894FFCF62
S1130E885F000000000000000000000000000000F7
S1130E98000E0A0E040E04040A4C657427732070AD
S1130EA86C61792048616E676D616E2120506C61B8
S1130EB879657220312C20656E7465722061207703
S1130EC86F726420666F7220506C6179657220328B
S1130ED820746F2067756573732E0000200000006E
S1130EE800000000000000000000000000200100D5
S1130EF800003136204C657474657273204D415876
S1050F080000E3
S9030000FC
