:1000000088C00000A3C00000A1C000009FC0000085
:100010009DC000009BC0000099C0000097C0000078
:1000200095C0000093C0000091C000008FC0000088
:100030008DC0000000C1000089C0000087C0000022
:1000400085C0000083C0000081C000007FC00000A8
:100050007DC000007BC0000079C0000077C00000B8
:1000600075C0000073C0000071C000006FC00000C8
:100070006DC000006BC0000069C0000067C00000D8
:1000800065C0000063C0000061C00000D5010A0324
:100090000A030A030A030A030A030A030A030A03F8
:1000A0000A030A030A030A030A030A030A030A03E8
:1000B0000A030A030A030A030A030A030A030A03D8
:1000C0000A030A030A030A030A030A030A030A03C8
:1000D0000A030A030A030A030A030A030A030A03B8
:1000E0000A030A030A030A030A030A030A03DB01D9
:1000F000E101040227024A026D029002B302D70214
:100100000A030A030A030A030A030A030A03FA0298
:10011000000311241FBECFEFD0E4DEBFCDBF11E03E
:10012000A0E0B1E0E8EEF8E000E00BBF02C007900D
:100130000D92A236B107D9F721E0A2E6B1E001C0E5
:100140001D92A538B207E1F754D3CCC359CF181686
:1001500019065CF00895000021503109E1F74F5F66
:100160005F4F8417950719F4089540E050E027E0A9
:1001700033E0F1CF10988BB9119A0000119882E00A
:1001800090E0E5CF089581E0F5CF0895813118F42E
:100190008158F0CF08958155EDCF089584E690E021
:1001A000D6DF88E3E7DF86E0E5DF8FE0E3DF81E0AD
:1001B000E1DF8AE090E0CBCF0895109A8BB9119AD5
:1001C0000000119881E090E0C2CF089560935D0136
:1001D00070935E0180935F019093600160937C0156
:1001E00070937D0180937E0190937F0108958BE051
:1001F000809381008DE790E0909389008093880040
:1002000082E080936F0010928500109284008091AC
:100210005D0190915E01A0915F01B09160018093BA
:100220007C0190937D01A0937E01B0937F018FB7F5
:1002300080688FBF08951F920F920FB60F921124FE
:100240008F939F93AF93BF9380917C0190917D0199
:10025000A0917E01B0917F010197A109B10980931E
:100260007C0190937D01A0937E01B0937F01892B47
:100270008A2B8B2B99F481E08093800180915D0122
:1002800090915E01A0915F01B091600180937C012B
:1002900090937D01A0937E01B0937F01BF91AF91B8
:1002A0009F918F910F900FBE0F901F9018958FEE1A
:1002B00088B90000309B2EC0319B2EC0329B2EC0CF
:1002C000339B2EC08FED88B90000309B2BC0319B33
:1002D0002BC0329B2BC0339B2BC08FEB88B9000007
:1002E000309B28C0319B28C0329B28C0339B28C03C
:1002F0008FE788B90000309B25C0319B25C0329B19
:1003000025C0339B25C080917B018F5F80937B014B
:1003100080E0089581E3089584E3089587E30895D4
:100320008AE2089582E3089585E3089588E30895B5
:1003300080E3089583E3089586E3089589E30895AB
:1003400083E2089581E4089582E4089583E40895A2
:1003500084E40895CF93DF93EC0181309105C9F0D7
:100360008230910531F0892B21F081E08093830167
:1003700002C0C1E0D0E0C130D10539F0C230D105B2
:1003800041F0209709F460C141C191DF8093810160
:100390005BC1E09181018E2F90E08334910508F0DC
:1003A00039C1FC01EA5BFF4F94C280E280935C019B
:1003B000C2E0D0E049C180E280935C01C2E0D0E0BD
:1003C00043C190917B018BEA989F812D11248695E2
:1003D000282F220F820F981B913031F481E48093F3
:1003E0005C01C2E0D0E030C1923031F482E480930D
:1003F0005C01C2E0D0E028C191110FC183E4809379
:100400005C01C2E0D0E020C190917B018BEA989F13
:10041000812D11248695282F220F820F981B913051
:1004200031F484E480935C01C2E0D0E00DC19230ED
:1004300031F485E480935C01C2E0D0E005C1911104
:10044000EFC086E480935C01C2E0D0E0FDC09091F3
:100450007B018BEA989F812D11248695282F220FEE
:10046000820F981B913031F487E480935C01C2E0E5
:10047000D0E0EAC0923031F488E480935C01C2E0BD
:10048000D0E0E2C09111CFC089E480935C01C2E06A
:10049000D0E0DAC090917B018BEA989F812D1124E6
:1004A0008695282F220F820F981B913031F48AE411
:1004B00080935C01C2E0D0E0C7C0923031F48BE49D
:1004C00080935C01C2E0D0E0BFC09111AFC08CE46A
:1004D00080935C01C2E0D0E0B7C090917B018BEAD1
:1004E000989F812D11248695282F220F820F981B0B
:1004F000913031F48DE480935C01C2E0D0E0A4C07F
:10050000923031F48EE480935C01C2E0D0E09CC074
:1005100091118FC080E380935C01C2E0D0E094C071
:1005200080917B018370813031F480E580935C01A0
:10053000C2E0D0E089C0823031F481E580935C0173
:10054000C2E0D0E081C0833031F482E580935C0169
:10055000C2E0D0E079C081116FC083E580935C0177
:10056000C2E0D0E071C090917B018BEA989F812D11
:1005700011248695282F220F820F981B913031F479
:1005800084E580935C01C2E0D0E05EC0923031F43B
:1005900085E580935C01C2E0D0E056C0933009F05D
:1005A0004EC086E580935C01C2E0D0E04DC08091F2
:1005B0007B018370813031F487E580935C01C2E078
:1005C000D0E042C0823031F488E580935C01C2E023
:1005D000D0E03AC0833031F489E580935C01C2E019
:1005E000D0E032C081112EC08AE580935C01C2E068
:1005F000D0E02AC083E780935C01C2E0D0E024C051
:1006000085E680935C01C2E0D0E01EC081E080936B
:1006100083011AC0C2E0D0E017C0C2E0D0E014C02D
:10062000C2E0D0E011C0C2E0D0E00EC0C2E0D0E035
:100630000BC0C2E0D0E008C0C2E0D0E005C0C2E01C
:10064000D0E002C0C2E0D0E0CE01DF91CF910895AA
:100650000F931F93CF93DF93883070F48B01880F33
:10066000880F880F805C86DDE801085F1F4F899145
:10067000A4DDC017D107D9F7DF91CF911F910F915A
:100680000895CF93DF938230910539F0833091053F
:1006900069F0009781F477DD1AC080917801843386
:1006A000B0F071DD81E080937A015BC080B180950C
:1006B00086FD7EC056C08330910509F452C0843057
:1006C000910509F475C08230910509F08FC0109230
:1006D0007A0180E08F5F5ADDE0917A01F0E0E75E19
:1006E000FE4F80816ADD80917A018F5F80937A016D
:1006F000803180F39091190190938201E9E1F1E05A
:100700002CE531E0818181932E173F07D9F7909333
:100710005C0161E171E080E09BDF81E137DD80E039
:100720004CDD84E133DD80E048DD87E12FDD80E0D2
:1007300044DD8AE12BDD80E040DD8DE127DD80E0D6
:100740003CDD80E223DD80E038DD83E21FDD80E0F8
:1007500034DD809178018F5F8093780182E090E0B2
:1007600045C080B1809585FF16C0809179018031A8
:1007700090F490917A019F5F90937A01E82FF0E0D6
:10078000E050FF4F9091840190838F5F80937901B7
:1007900080E280935C0180917A01F8DC80915C01B9
:1007A000803211F18093840108DD83E090E01EC067
:1007B000EADC80917901882381F0C0E0D1E0DC0F90
:1007C0008D2FE4DCEC2FF0E0E050FF4F8081F5DC72
:1007D000CD2F80917901D81788F381E1D7DC8AE2A7
:1007E000ECDC84E090E002C083E090E0DF91CF9108
:1007F00008958FEF8AB91BB881B982B984B915B849
:1008000080EF87B98FE088B9E2E6F1E0108284EFEB
:1008100091E0A0E0B0E081839283A383B4838583D9
:100820009683A783B08781E493E0928781871386BC
:100830008CE291E0A0E0B0E084879587A687B78737
:10084000808B918BA28BB38B8AEA91E0958B848B02
:1008500064E670E080E090E0B9DCC9DC9FDC0F2E3C
:10086000F8E7EF2EF1E0FF2EF02DC2E6D1E08E0189
:100870004D815E816F81788589819A81AB81BC8150
:10088000481759076A077B0761F48881E985FA856B
:10089000082E000C990B099588831D821E821F82E9
:1008A0001886F80185819681A781B0858C599F4F64
:1008B000AF4FBF4F85839683A783B0872B96CE1506
:1008C000DF05A9F6809180018823E1F31092800171
:1008D000CCCFEE0FFF1F0024001C0BBE0790F6913B
:0808E000E02D0994F894FFCF0C
:1008E80020000000000000000000000000000000E0
:1008F800000E0A0E040E04040A4C65742773207057
:100908006C61792048616E676D616E2120506C6161
:1009180079657220312C20656E74657220612077AC
:100928006F726420666F7220506C61796572203234
:1009380020746F2067756573732E00002001000016
:020948000000AD
:00000001FF
