S00F000048616E676D616E2E737265635B
S11300007FC000009AC0000098C0000096C00000A5
S113001094C0000092C0000090C000008EC0000098
S11300208CC000008AC0000088C0000086C00000A8
S113003084C0000010C1000080C000007EC0000029
S11300407CC000007AC0000078C0000076C00000C8
S113005074C0000072C0000070C000006EC00000D8
S11300606CC000006AC0000068C0000066C00000E8
S113007064C0000062C0000060C000005EC00000F8
S11300805CC000005AC0000058C00000E5010E0327
S11300900E030E030E030E030E030E030E030E03D4
S11300A00E030E030E030E030E030E030E030E03C4
S11300B00E030E030E030E030E030E030E030E03B4
S11300C00E030E030E030E030E030E030E030E03A4
S11300D00E030E030E030E030E030E030E030E0394
S11300E00E030E030E030E030E030E030E03EB01A9
S11300F0F101140237025A027D02A002C302E70290
S113010011241FBECFEFD0E4DEBFCDBF11E0A0E0CD
S1130110B1E0E8E6F9E000E00BBF02C007900D9201
S1130120A037B107D9F721E0A0E7B1E001C01D92E3
S1130130A439B207E1F78CD315C462CF1816190697
S11301405CF00895000021503109E1F74F5F5F4FE3
S11301508417950719F4089540E050E027E033E050
S1130160F1CF10988BB9119A0000119882E090E0B9
S1130170E5CF089581E0F5CF0895813118F48158D1
S1130180F0CF08958155EDCF089584E690E0D6DF51
S113019088E3E7DF86E0E5DF8FE0E3DF81E0E1DFAE
S11301A08AE090E0CBCF0895109A8BB9119A0000A1
S11301B0119881E090E0C2CF08950F931F93CF93DD
S11301C0DF93182FEB01D6DF8881882351F001E0FB
S11301D0010F812FD2DF8991E7DF102F88818111F0
S11301E0F6CFDF91CF911F910F91089560935D0138
S11301F070935E0180935F019093600160938B0123
S113020070938C0180938D0190938E0108958BE0FF
S1130210809381008DE790E090938900809388001B
S113022082E080936F001092850010928400809188
S11302305D0190915E01A0915F01B0916001809396
S11302408B0190938C01A0938D01B0938E018FB795
S113025080688FBF08951F920F920FB60F921124DA
S11302608F939F93AF93BF9380918B0190918C0157
S1130270A0918D01B0918E010197A109B1098093DC
S11302808B0190938C01A0938D01B0938E01892BE7
S11302908A2B8B2B99F481E080938F0180915D01EF
S11302A090915E01A0915F01B091600180938B01F8
S11302B090938C01A0938D01B0938E01BF91AF9167
S11302C09F918F910F900FBE0F901F9018958FEEF6
S11302D088B90000309B2EC0319B2EC0329B2EC0AB
S11302E0339B2EC08FED88B90000309B2BC0319B0F
S11302F02BC0329B2BC0339B2BC08FEB88B90000E3
S1130300309B28C0319B28C0329B28C0339B28C017
S11303108FE788B90000309B25C0319B25C0329BF4
S113032025C0339B25C080918A018F5F80938A0109
S113033080E0089581E3089584E3089587E30895B0
S11303408AE2089582E3089585E3089588E3089591
S113035080E3089583E3089586E3089589E3089587
S113036083E2089581E4089582E4089583E408957E
S113037084E40895CF93DF93EC0181309105C9F0B3
S11303808230910531F0892B21F081E08093920134
S113039002C0C1E0D0E0C130D10539F0C230D1058E
S11303A041F0209709F454C135C191DF8093900145
S11303B04FC1E09190018E2F90E08A33910508F0AF
S11303C02DC1FC01EA5BFF4FC4C280E280935C0153
S11303D0C2E0D0E03DC180E280935C01C2E0D0E0A5
S11303E037C190918A018BEA989F812D11248695BB
S11303F0282F220F820F981B913031F481E48093CF
S11304005C01C2E0D0E024C1923031F482E48093F4
S11304105C01C2E0D0E01CC1911103C183E480936C
S11304205C01C2E0D0E014C190918A018BEA989FEC
S1130430812D11248695282F220F820F981B91302D
S113044031F484E480935C01C2E0D0E001C19230D5
S113045031F485E480935C01C2E0D0E0F9C09111ED
S1130460E3C086E480935C01C2E0D0E0F1C09091E7
S11304708A018BEA989F812D11248695282F220FBB
S1130480820F981B913031F487E480935C01C2E0C1
S1130490D0E0DEC0923031F488E480935C01C2E0A5
S11304A0D0E0D6C09111C3C089E480935C01C2E05E
S11304B0D0E0CEC090918A018BEA989F812D1124BF
S11304C08695282F220F820F981B913031F48AE4ED
S11304D080935C01C2E0D0E0BBC0923031F48BE485
S11304E080935C01C2E0D0E0B3C09111A3C08CE45E
S11304F080935C01C2E0D0E0ABC090918A018BEAAA
S1130500989F812D11248695282F220F820F981BE6
S1130510913031F48DE480935C01C2E0D0E098C066
S1130520923031F48EE480935C01C2E0D0E090C05C
S1130530911183C080E380935C01C2E0D0E088C065
S113054080918A018370813031F480E580935C016D
S1130550C2E0D0E07DC0823031F481E580935C015B
S1130560C2E0D0E075C0833031F482E580935C0151
S1130570C2E0D0E06DC0811163C083E580935C016B
S1130580C2E0D0E065C090918A018BEA989F812DEA
S113059011248695282F220F820F981B913031F455
S11305A084E580935C01C2E0D0E052C0923031F423
S11305B085E580935C01C2E0D0E04AC0933009F045
S11305C042C086E580935C01C2E0D0E041C08091E6
S11305D08A018370813031F487E580935C01C2E045
S11305E0D0E036C0823031F488E580935C01C2E00B
S11305F0D0E02EC0833031F489E580935C01C2E001
S1130600D0E026C0811122C08AE580935C01C2E05B
S1130610D0E01EC081E0809392011AC0C2E0D0E015
S113062017C0C2E0D0E014C0C2E0D0E011C0C2E004
S1130630D0E00EC0C2E0D0E00BC0C2E0D0E008C001
S1130640C2E0D0E005C0C2E0D0E002C0C2E0D0E029
S1130650CE01DF91CF910895CF93C82F299868D107
S11306608C2F72D1299A66D1CF91089528982FEFB3
S113067080E792E0215080409040E1F700C0000004
S1130680289A0895F3DF81E2E7DF80ECE5DF87E075
S1130690E3DF83E1E1DF80E2DFDF8CE0DDCF08959B
S11306A0CF93DF9345D1299AC8EFD1E080E04CD1B4
S11306B02197E1F729983ED1DF91CF9108950F93C7
S11306C01F93CF93DF93883070F48B01880F880FCA
S11306D0880F805C46DDE801085F1F4F899164DD67
S11306E0C017D107D9F7DF91CF911F910F910895CA
S11306F08230910551F083309105B1F0009729F5CE
S113070039DD1AD1BFDFCCDF28C080918601843364
S113071020F130DD61E671E081E14FDD81E02DDD26
S113072081E08093880163C080B1809586FF5FC0BB
S113073021DD81E022DD81E08093880180918901BF
S1130740805D32DD84E090E008958230910529F0E7
S11307508330910509F07BC04AC01092880180E083
S11307608F5F0BDDE0918801F0E0E85FFE4F808150
S11307701BDD809188018F5F80938801803180F335
S11307809091080190939101E8E0F1E02BE431E0CD
S1130790818181932E173F07D9F790934B0160E035
S11307A071E080E08CDF81E1E8DC80E0FDDC84E165
S11307B0E4DC80E0F9DC87E1E0DC80E0F5DC8AE180
S11307C0DCDC80E0F1DC8DE1D8DC80E0EDDC80E293
S11307D0D4DC80E0E9DC83E2D0DC80E0E5DC8091FD
S11307E086018F5F8093860182E090E0089580B156
S11307F0809585FF1DC0809187018031C8F4909158
S113080088019F5F90938801E82FF0E0E55BFE4F3D
S11308109091930190838F5F8093870180E280930E
S11308205C0110928A01809189018F5F8093890114
S113083080918801A2DC80915C01803231F0809348
S11308409301B2DC83E090E0089583E090E00895A2
S11308508FEF8AB91BB881B982B984B915B880EF12
S113086087B98FE088B9E0E7F1E0108284EF91E086
S1130870A0E0B0E081839283A383B48385839683CD
S1130880A783B08788E793E09287818713868CE2F9
S113089091E0A0E0B0E084879587A687B787808B36
S11308A0918BA28BB38B8AEB91E0958B848B64E65E
S11308B070E080E090E09ADCAADC67DC0F2EF6E8BA
S11308C0EF2EF1E0FF2EF02DC0E7D1E08E014D8137
S11308D05E816F81788589819A81AB81BC8148175B
S11308E059076A077B0761F48881E985FA85082E30
S11308F0000C990B099588831D821E821F8218861D
S1130900F80185819681A781B0858C599F4FAF4F9F
S1130910BF4F85839683A783B0872B96CE15DF05BB
S1130920A9F680918F018823E1F310928F01CCCF37
S11309302C9808952C9A089583EB84B9289A2698C4
S11309402C9A81E58CBD08958EBD0DB407FEFDCFB4
S11309500895EE0FFF1F0024001C0BBE0790F691B4
S10B0960E02D0994F894FFCF87
S11309680E0A0E040E04040A4C6574277320706C76
S113097861792048616E676D616E2120506C6179E0
S1130988657220312C20656E746572206120776F42
S1130998726420666F7220506C617965722032200F
S11309A8746F2067756573732E00002000000000C3
S11309B8000000000000000000000000200100000A
S11309C8003136204C657474657273204D415800AB
S9030000FC
