:100000007FC000009AC0000098C0000096C00000A9
:1000100094C0000092C0000090C000008EC000009C
:100020008CC000008AC0000088C0000086C00000AC
:1000300084C0000010C1000080C000007EC000002D
:100040007CC000007AC0000078C0000076C00000CC
:1000500074C0000072C0000070C000006EC00000DC
:100060006CC000006AC0000068C0000066C00000EC
:1000700064C0000062C0000060C000005EC00000FC
:100080005CC000005AC0000058C00000E5010E032B
:100090000E030E030E030E030E030E030E030E03D8
:1000A0000E030E030E030E030E030E030E030E03C8
:1000B0000E030E030E030E030E030E030E030E03B8
:1000C0000E030E030E030E030E030E030E030E03A8
:1000D0000E030E030E030E030E030E030E030E0398
:1000E0000E030E030E030E030E030E030E03EB01AD
:1000F000F101140237025A027D02A002C302E70294
:1001000011241FBECFEFD0E4DEBFCDBF13E0A0E0CF
:10011000B1E0E6EEF9E000E00BBF02C007900D92FF
:10012000A036B107D9F723E0A0E6B3E001C01D92E5
:10013000A338B207E1F7CBD354C462CF181619061F
:100140005CF00895000021503109E1F74F5F5F4FE7
:100150008417950719F4089540E050E027E033E054
:10016000F1CF10988BB9119A0000119882E090E0BD
:10017000E5CF089581E0F5CF0895813118F48158D5
:10018000F0CF08958155EDCF089584E690E0D6DF55
:1001900088E3E7DF86E0E5DF8FE0E3DF81E0E1DFB2
:1001A0008AE090E0CBCF0895109A8BB9119A0000A5
:1001B000119881E090E0C2CF08950F931F93CF93E1
:1001C000DF93182FEB01D6DF8881882351F001E0FF
:1001D000010F812FD2DF8991E7DF102F88818111F4
:1001E000F6CFDF91CF911F910F91089560935D013C
:1001F00070935E0180935F019093600160937A0336
:1002000070937B0380937C0390937D0308958BE030
:10021000809381008DE790E090938900809388001F
:1002200082E080936F00109285001092840080918C
:100230005D0190915E01A0915F01B091600180939A
:100240007A0390937B03A0937C03B0937D038FB7D5
:1002500080688FBF08951F920F920FB60F921124DE
:100260008F939F93AF93BF9380917A0390917B0379
:10027000A0917C03B0917D030197A109B1098093FE
:100280007A0390937B03A0937C03B0937D03892B27
:100290008A2B8B2B99F481E080937E0380915D0102
:1002A00090915E01A0915F01B091600180937A030B
:1002B00090937B03A0937C03B0937D03BF91AF9198
:1002C0009F918F910F900FBE0F901F9018958FEEFA
:1002D00088B90000309B2EC0319B2EC0329B2EC0AF
:1002E000339B2EC08FED88B90000309B2BC0319B13
:1002F0002BC0329B2BC0339B2BC08FEB88B90000E7
:10030000309B28C0319B28C0329B28C0339B28C01B
:100310008FE788B90000309B25C0319B25C0329BF8
:1003200025C0339B25C0809179038F5F809379032B
:1003300080E0089581E3089584E3089587E30895B4
:100340008AE2089582E3089585E3089588E3089595
:1003500080E3089583E3089586E3089589E308958B
:1003600083E2089581E4089582E4089583E4089582
:1003700084E40895CF93DF93EC0181309105C9F0B7
:100380008230910531F0892B21F081E08093810347
:1003900002C0C1E0D0E0C130D10539F0C230D10592
:1003A00041F0209709F454C135C191DF80937F0358
:1003B0004FC1E0917F038E2F90E08A33910508F0C2
:1003C0002DC1FC01EA5BFF4F03C380E280935C0117
:1003D000C2E0D0E03DC180E280935C01C2E0D0E0A9
:1003E00037C1909179038BEA989F812D11248695CE
:1003F000282F220F820F981B913031F481E48093D3
:100400005C01C2E0D0E024C1923031F482E48093F8
:100410005C01C2E0D0E01CC1911103C183E4809370
:100420005C01C2E0D0E014C1909179038BEA989FFF
:10043000812D11248695282F220F820F981B913031
:1004400031F484E480935C01C2E0D0E001C19230D9
:1004500031F485E480935C01C2E0D0E0F9C09111F1
:10046000E3C086E480935C01C2E0D0E0F1C09091EB
:1004700079038BEA989F812D11248695282F220FCE
:10048000820F981B913031F487E480935C01C2E0C5
:10049000D0E0DEC0923031F488E480935C01C2E0A9
:1004A000D0E0D6C09111C3C089E480935C01C2E062
:1004B000D0E0CEC0909179038BEA989F812D1124D2
:1004C0008695282F220F820F981B913031F48AE4F1
:1004D00080935C01C2E0D0E0BBC0923031F48BE489
:1004E00080935C01C2E0D0E0B3C09111A3C08CE462
:1004F00080935C01C2E0D0E0ABC0909179038BEABD
:10050000989F812D11248695282F220F820F981BEA
:10051000913031F48DE480935C01C2E0D0E098C06A
:10052000923031F48EE480935C01C2E0D0E090C060
:10053000911183C080E380935C01C2E0D0E088C069
:10054000809179038370813031F480E580935C0180
:10055000C2E0D0E07DC0823031F481E580935C015F
:10056000C2E0D0E075C0833031F482E580935C0155
:10057000C2E0D0E06DC0811163C083E580935C016F
:10058000C2E0D0E065C0909179038BEA989F812DFD
:1005900011248695282F220F820F981B913031F459
:1005A00084E580935C01C2E0D0E052C0923031F427
:1005B00085E580935C01C2E0D0E04AC0933009F049
:1005C00042C086E580935C01C2E0D0E041C08091EA
:1005D00079038370813031F487E580935C01C2E058
:1005E000D0E036C0823031F488E580935C01C2E00F
:1005F000D0E02EC0833031F489E580935C01C2E005
:10060000D0E026C0811122C08AE580935C01C2E05F
:10061000D0E01EC081E0809381031AC0C2E0D0E028
:1006200017C0C2E0D0E014C0C2E0D0E011C0C2E008
:10063000D0E00EC0C2E0D0E00BC0C2E0D0E008C005
:10064000C2E0D0E005C0C2E0D0E002C0C2E0D0E02D
:10065000CE01DF91CF910895CF93C82F2998A7D1CC
:100660008C2FB1D1299AA5D1CF910895EF92FF9205
:100670000F931F93CF93DF938C01299A98D1F801A0
:1006800001900020E9F73197E01BF10B1E161F06C1
:100690002CF5E8010E0F1F1F1EC0288130E02052EC
:1006A0003109F901EE0FFF1FEE0FFF1FE20FF31FDD
:1006B000E058FE4FEE0DFF1D808185D18FEFE81AC7
:1006C000F80A85E0E816F10441F780E07CD1219634
:1006D0000C171D0719F0E12CF12CDFCF6AD1DF9147
:1006E000CF911F910F91FF90EF90089528982FEFD1
:1006F00080E792E0215080409040E1F700C0000088
:10070000289A0895F3DF81E2A7DF80ECA5DF87E078
:10071000A3DF83E1A1DF80E29FDF8CE09DCF08951E
:10072000CF93C62F99DF8C2F97DFCF910895CF936A
:10073000DF933DD1299AC8EFD1E080E044D12197E1
:10074000E1F7299836D1DF91CF9108950F931F9348
:10075000CF93DF93883070F48B01880F880F880F58
:10076000805CFFDCE801085F1F4F89911DDDC01729
:10077000D107D9F7DF91CF911F910F910895823062
:10078000910539F08330910569F00097C9F4F2DCE6
:100790001FC0809176038433D8F0ECDC81E0809335
:1007A000780369C080B1809586FF65C0E3DC61E6AF
:1007B00071E081E102DD81E0E0DC84E090E0089519
:1007C0008230910529F08330910509F07FC053C034
:1007D000F2D098DFACDF60E880E4A2DF80E791E050
:1007E00045DF1092780380E08F5FC7DCE0917803EB
:1007F000F0E0E75EFE4F8081D7DC809178038F5F69
:1008000080937803803180F3909119019093800355
:10081000E9E1F1E02CE531E0818181932E173F077A
:10082000D9F790935C0161E171E080E08FDF81E1B5
:10083000A4DC80E0B9DC84E1A0DC80E0B5DC87E109
:100840009CDC80E0B1DC8AE198DC80E0ADDC8DE10D
:1008500094DC80E0A9DC80E290DC80E0A5DC83E22F
:100860008CDC80E0A1DC809176038F5F809376033F
:1008700082E090E0089580B1809585FF18C0809156
:1008800077038031A0F4909178039F5F9093780371
:10089000E82FF0E0E050FF4F9091820390838F5F4C
:1008A0008093770380E280935C01109279038091BA
:1008B000780363DC80915C01803231F080938203A5
:1008C00073DC83E090E0089583E090E008958FEF7B
:1008D0008AB91BB881B982B984B915B880EF87B9D4
:1008E0008FE088B9E0E6F3E0108284EF91E0A0E0C9
:1008F000B0E081839283A383B48385839683A783A7
:10090000B0878FEB93E09287818713868CE291E02A
:10091000A0E0B0E084879587A687B787808B918B0E
:10092000A28BB38B8AEB91E0958B848B64E670E0AD
:1009300080E090E05BDC6BDC28DC0F2EF6E7EF2E2E
:10094000F3E0FF2EF02DC0E6D3E08E014D815E81F5
:100950006F81788589819A81AB81BC81481759075D
:100960006A077B0761F48881E985FA85082E000C07
:10097000990B099588831D821E821F821886F801B3
:1009800085819681A781B0858C599F4FAF4FBF4F0E
:1009900085839683A783B0872B96CE15DF05A9F6AE
:1009A00080917E038823E1F310927E03CCCF2C98B4
:1009B00008952C9A089583EB84B9289A26982C9A46
:1009C00081E58CBD08958EBD0DB407FEFDCF089561
:1009D000EE0FFF1F0024001C0BBE0790F691E02DC8
:0609E0000994F894FFCF1A
:1009E60020000000000000000000000000000000E1
:1009F600000E0A0E040E04040A4C65742773207058
:100A06006C61792048616E676D616E2120506C6162
:100A160079657220312C20656E74657220612077AD
:100A26006F726420666F7220506C61796572203235
:100A360020746F2067756573732E00002001000017
:100A4600003136204C657474657273204D41580030
:100A5600456C656374726F6E696357696E67730080
:100A6600000000000000005F0000000700070014FF
:100A76007F147F14242A7F2A1223130864623649BE
:100A86005522500005030000001C224100004122AF
:100A96001C0014083E081408083E080800503000E0
:100AA600000808080808006060000020100804021A
:100AB6003E5149453E00427F400042615149462130
:100AC60041454B311814127F1027454545393C4A9C
:100AD60049493001710905033649494936064949EC
:100AE600291E003636000000563600000814224142
:100AF60000141414141400412214080201510906AA
:100B0600324979413E7E1111117E7F494949363E6F
:100B1600414141227F4141221C7F494949417F0988
:100B26000909013E4149497A7F0808087F00417F4B
:100B360041002040413F017F081422417F40404050
:100B4600407F020C027F7F0408107F3E4141413EF8
:100B56007F090909063E4151215E7F09192946464A
:100B66004949493101017F01013F4040403F1F2073
:100B760040201F3F4038403F631408146307087045
:100B860008076151494543007F41410002040810AE
:100B9600200041417F0004020102044040404040E1
:100BA600000102040020545454787F4844443838E5
:100BB60044444420384444487F3854545418087EEA
:100BC6000901020C5252523E7F0804047800447D0B
:100BD60040002040443D007F1028440000417F40F3
:100BE600007C041804787C080404783844444438AB
:100BF6007C14141408081414187C7C08040408488F
:100C060054545420043F4440203C4040207C1C2047
:100C160040201C3C4030403C44281028440C505096
:100C2600503C4464544C44000836410000007F00A8
:100C3600000041360800100808100878464146783A
:00000001FF
